:100000000C9471000C94780D0C94510D0C94430ECB
:100010000C941D0E0C94F70D0C9499000C949900FF
:100020000C9499000C9499000C9499000C949900EC
:100030000C9499000C9499000C9499000C949900DC
:100040000C94070D0C9499000C94C50D0C949F0D05
:100050000C9499000C9499000C9499000C949900BC
:100060000C9499000C94990005A84CCDB2D44EB9CB
:100070003836A9020C50B9918688083CA6AAAA2A4B
:10008000BE000000803F00000000240027002A007E
:1000900000000000250028002B00040404040404D0
:1000A0000404020202020202030303030303010227
:1000B00004081020408001020408102001020408F6
:1000C00010200000000800020100000304070000E7
:1000D00000000000000000000000230026002900AE
:1000E000510F11241FBECFEFD8E0DEBFCDBF11E00E
:1000F000A0E0B1E0E4E6F9E202C005900D92A63678
:10010000B107D9F724E0A6E6B1E001C01D92A03204
:10011000B207E1F710E0C1E7D0E004C02197FE018B
:100120000E949614C037D107C9F70E9473100C942F
:10013000B0140C940000FC01538D448D252F30E049
:10014000842F90E0821B930B541710F0CF960895E4
:1001500001970895FC01918D828D981761F0A28D11
:10016000AE0FBF2FB11D5D968C91928D9F5F9F73D7
:10017000928F90E008958FEF9FEF0895FC01918D8D
:10018000828D981731F0828DE80FF11D858D90E0FA
:1001900008958FEF9FEF0895FC01918D228D892F97
:1001A00090E0805C9F4F821B91098F73992708957F
:1001B000FC01A48DA80FB92FB11DA35ABF4F2C91DC
:1001C000848D90E001968F739927848FA689B789D3
:1001D0002C93A089B1898C91837080648C93938DCA
:1001E000848D981306C00288F389E02D80818F7D6D
:1001F00080830895EF92FF920F931F93CF93DF9325
:10020000EC0181E0888F9B8D8C8D98131AC0E88952
:10021000F989808185FF15C09FB7F894EE89FF8921
:100220006083E889F98980818370806480839FBFBF
:1002300081E090E0DF91CF911F910F91FF90EF90BF
:100240000895F62E0B8D10E00F5F1F4F0F731127CF
:10025000E02E8C8D8E110CC00FB607FCFACFE8890A
:10026000F989808185FFF5CFCE010E94D800F1CFBA
:10027000EB8DEC0FFD2FF11DE35AFF4FF0829FB77E
:10028000F8940B8FEA89FB8980818062CFCFCF936E
:10029000DF93EC01888D8823B9F0AA89BB89E889AE
:1002A000F9898C9185FD03C0808186FD0DC00FB654
:1002B00007FCF7CF8C9185FFF2CF808185FFEDCFD2
:1002C000CE010E94D800E9CFDF91CF91089583300D
:1002D00081F028F4813099F08230A9F008958730B8
:1002E000A9F08830C9F08430B1F4809180008F7D0E
:1002F00003C0809180008F7780938000089584B53B
:100300008F7784BD089584B58F7DFBCF8091B00039
:100310008F778093B00008958091B0008F7DF9CFE2
:10032000CF93DF93282F30E0F901EE53FF4F8491F4
:10033000F901E255FF4FD491F901E656FF4FC49100
:10034000CC23A1F081110E946701EC2FF0E0EE0FA9
:10035000FF1FEA52FF4FA591B491EC91ED2381E08C
:1003600090E009F480E0DF91CF91089580E090E083
:10037000FACF1F93CF93DF93282F30E0F901EE538C
:10038000FF4F8491F901E255FF4FD491F901E656F0
:10039000FF4FC491CC23A9F0162F81110E94670151
:1003A000EC2FF0E0EE0FFF1FE057FF4FA591B49147
:1003B0008FB7F894EC91111108C0D095DE23DC932F
:1003C0008FBFDF91CF911F910895DE2BF8CFCF9390
:1003D000DF9390E0FC01E255FF4F249186569F4F3A
:1003E000FC0184918823D1F090E0880F991FFC01D3
:1003F000EA57FF4FA591B491FC01E057FF4FC5911B
:10040000D49161110EC09FB7F8948C91E22FE095C2
:100410008E238C932881E223E8839FBFDF91CF91C5
:1004200008958FB7F894EC91E22BEC938FBFF6CF41
:100430001F93CF93DF93182FEB0161E00E94E70138
:10044000209739F460E0812FDF91CF911F910C94B8
:10045000B901CF3FD10511F461E0F5CFE12FF0E014
:10046000EE53FF4FE491E33031F140F4E130B1F06D
:10047000E230E1F0C038D1057CF7E4CFE73029F174
:10048000E83059F1E430B1F78091800080628093C8
:100490008000D0938B00C0938A0004C084B580682C
:1004A00084BDC7BDDF91CF911F91089584B580624F
:1004B00084BDC8BDF7CF80918000806880938000A4
:1004C000D0938900C0938800EDCF8091B000806800
:1004D0008093B000C093B300E5CF8091B0008062FC
:1004E0008093B000C093B400DDCF3FB7F894809103
:1004F0006F0190917001A0917101B091720126B5C8
:10050000A89B05C02F3F19F00196A11DB11D3FBF4B
:10051000BA2FA92F982F8827BC01CD01620F711D1A
:10052000811D911D42E0660F771F881F991F4A9514
:10053000D1F708958F929F92AF92BF92CF92DF92A0
:10054000EF92FF926B017C010E9475024B015C01EE
:10055000C114D104E104F104B9F00E9475026819D4
:1005600079098A099B09683E73408105910580F3EA
:1005700021E0C21AD108E108F10888EE880E83E074
:10058000981EA11CB11CE4CFFF90EF90DF90CF909C
:10059000BF90AF909F908F9008952FB7F89460917F
:1005A0006B0170916C0180916D0190916E012FBF74
:1005B00008952F923F924F925F926F927F928F9207
:1005C0009F92AF92BF92CF92DF92EF92FF920F93E2
:1005D0001F93CF93DF9300D000D000D0CDB7DEB70C
:1005E0009A838983FC01EE59FF4F808181111BC0E2
:1005F000A12C8A2D26960FB6F894DEBF0FBECDBF74
:10060000DF91CF911F910F91FF90EF90DF90CF90EE
:10061000BF90AF909F908F907F906F905F904F9022
:100620003F902F900895E981FA81EF5AFF4F019092
:10063000F081E02D818909811A81085A1F4F8F3F6F
:1006400009F43AC18089A981BA81AB5ABF4F9C9104
:10065000981709F431C126853785ACE3B0E00E94D4
:1006600053112CE030E040E050E00E943111319510
:1006700021953109D8012D933C9329803A80F0E5EA
:100680002F0E311CD1011C92E981FA8185A98823A2
:1006900009F4AECFFE83ED830E94CD024B015C01D5
:1006A000ED81FE8185A596A5A7A5B0A98816990616
:1006B000AA06BB0608F4D0C0A0A5B1A524A135A107
:1006C0008D919C91D9012D913C91821B930B93AFFD
:1006D00082AF84A58823D9F002A4F3A5E02D608120
:1006E0007181072E000C880B990B0E948312ED81FB
:1006F000FE81E85BFF4F20813181428153810E945E
:100700006211ED81FE8166AB77AB80AF91AFF8945B
:10071000AD81BE81DA966D917C91072E000C880B1D
:10072000990B0E948312ED81FE81248535854685D3
:1007300057850E9477136B017C01AD81BE81DC96E9
:100740006D917C91072E000C880B990B0E948312EF
:10075000ED81FE8120893189428953890E94771376
:100760009B01AC01C701B6010E9462116B017C01C3
:10077000AD81BE81DE966D917C91072E000C880BB9
:10078000990B0E948312ED81FE8124893589468967
:1007900057890E9477139B01AC01C701B6010E94E3
:1007A0006311AD81BE81D6962D913D914D915C91A5
:1007B000D9970E9463110E944B128B017894072EE7
:1007C000000C880B990B0E94831269837A838B83B8
:1007D0009C83ED81FE81E45BFF4FC080D180E2808D
:1007E000F3802601370177FA709477F87094A301AB
:1007F00092010E94CF1187FF6FC0C301B2010E9416
:100800004B128B01ED81FE8184AD95AD97AF86AF24
:1008100082AD93AD95AF84AFDF0106A0F7A1E02DC7
:1008200011830083FD0181A992A9A3A9B4A945A5BB
:1008300056A567A570A9480F591F6A1F7B1F481549
:1008400059056A057B0508F455C045A756A767A753
:1008500070AB81E0D1018C93F101A080AA2009F452
:10086000C7CE0D811E81025A1F4FED81FE81E65ACF
:10087000FF4F60817181072E000C880B990B0E943D
:100880008312D8012D913D914D915C910E9463118D
:100890006B017C0120E030E04AEF55E40E947213C6
:1008A00087FD33C080E090E0AAEFB5E4F8018083D3
:1008B0009183A283B3833AC026853785ACE3B0E049
:1008C0000E9453112CE030E040E050E00E943111D2
:1008D000F80131832083D1CEA701960169817A8105
:1008E0008B819C810E94721318160CF08BCFC7016C
:1008F000B60185CF880D991DAA1DBB1DED81FE8116
:1009000085A796A7A7A7B0ABA4CF20E030E04AEF19
:1009100055ECC701B6010E94CF1118160CF046C065
:10092000D801CD92DD92ED92FC921397D801CD9033
:10093000DD90ED90FC90ED81FE81EB5AFF4FB08091
:10094000ED81FE81ED5AFF4F908020E030E0A9015B
:10095000C701B6010E9472130D811E810A5A1F4FF2
:10096000ED81FE81EC5AFF4FFA83E98387FD23C0B6
:10097000C701B6010E944B129B01AC01AFEFB0E082
:100980000E94261120E43FE140E050E00E94071160
:10099000D8012D933C93B901892D0E9418026B2D2B
:1009A000E981FA8180810E94B90123CE80E090E044
:1009B000AAEFB5EC7BCF81E0B82620E030E0A901BA
:1009C000C701B6010E94721318164CF4C701B60194
:1009D0000E944B12AFEFB0E09B01AC01D1CFC70139
:1009E000B6019058F5CF0895AF92BF92CF92DF92A3
:1009F000EF92FF920F931F93CF93DF936C017B01D4
:100A00008B01040F151FEB015E01AE18BF08C01764
:100A1000D10759F06991D601ED91FC910190F081D7
:100A2000E02DC6010995892B79F7C501DF91CF919A
:100A30001F910F91FF90EF90DF90CF90BF90AF90FC
:100A400008958F5A9F4FDC01ED91FC918089268596
:100A50003785ACE3B0E0882351F00E9453112CE0BD
:100A600030E040E050E00E943111C90108950E9439
:100A700053112CE030E040E050E00E943111882713
:100A80009927821B930B0895CF92DF92EF92FF92EA
:100A9000CF93DF93EC010E942105BC01990F880BD5
:100AA000990B0E9483126B017C01FE01ED59FF4FEF
:100AB0006081718190E080E00E9481129B01AC0115
:100AC000C701B6010E94D9116B017C01CB59DF4FE0
:100AD0006881798190E080E00E9481129B01AC01E5
:100AE000C701B6010E94771320E030E040E251E4F4
:100AF0000E94D9110E944B12CB01DF91CF91FF9040
:100B0000EF90DF90CF900895FC01808191810E9449
:100B1000440566E070E00E948214CB010895CF93F3
:100B2000DF93EC01FC01E45AFF4F61348FE1780759
:100B300098F080E49FE191838083FE01EB5AFF4FA0
:100B40004083CE010E9421051816190644F4CE01F7
:100B5000DF91CF910C94210571836083EECFCE019C
:100B60000E942105919581959109DF91CF9108957A
:100B7000CF92DF92EF92FF92CF93DF93EC0126E0CA
:100B8000269FC001279F900D1124BC01990F880B4F
:100B9000990B0E94831220E030E040E251E40E9471
:100BA00077136B017C01FE01EB59FF4F608171816E
:100BB00090E080E00E9481129B01AC01C701B60168
:100BC0000E94D9116B017C01FE01ED59FF4F60813C
:100BD000718190E080E00E9481129B01AC01C7010D
:100BE000B6010E9477136B017C0120E030E0A9017F
:100BF0000E94721320E030E040E05FE387FD25C0F3
:100C0000C701B6010E9463110E944B1241E077FFB9
:100C100004C071956195710940E0CE010E948F0575
:100C2000CE010E942105CE010E944405CE010E9402
:100C3000440566E070E00E948214CB01DF91CF9101
:100C4000FF90EF90DF90CF900895C701B6010E940A
:100C50006211DACFEF92FF920F931F93CF93DF933E
:100C6000EC01E881F98100811D811027EA81FB8177
:100C70008081182331F10D837E0186E0E80EF11C9E
:100C8000D701ED91FD917D013097A9F08381982FD7
:100C90009123B1F39281913021F0923039F4802385
:100CA00079F70190F081E02D0995EACF933041F773
:100CB000802331F3F6CF8BB39C8189238BBB8111C9
:100CC000D0CFDF91CF911F910F91FF90EF900895BA
:100CD000CF93DF930E94750260931201709313010A
:100CE000809314019093150180910301811172C0CA
:100CF00040911201509113016091140170911501FE
:100D000080910E0190910F01A0911001B0911101FD
:100D100084179507A607B70708F05CC02091120159
:100D200030911301409114015091150180910E01F1
:100D300090910F01A0911001B0911101281B390B66
:100D40004A0B5B0B60E472E48FE090E00E9431118B
:100D50003093170120931601809112019091130195
:100D6000A0911401B091150180930E0190930F0191
:100D7000A0931001B0931101809119018F3F81F070
:100D800080911A010E949001EC01809119010E944A
:100D9000900121E0C817D90709F420E02093180139
:100DA000809118018823C9F080910A0190910B016C
:100DB000A0910C01B0910D010196A11DB11D809370
:100DC0000A0190930B01A0930C01B0930D01DF91E8
:100DD000CF91089510920301BFCF80910A019091A5
:100DE0000B01A0910C01B0910D010197A109B1096E
:100DF000E6CFCF93DF930E94750260932501709335
:100E0000260180932701909328018091020181118E
:100E100072C0409125015091260160912701709187
:100E200028018091210190912201A0912301B0918C
:100E3000240184179507A607B70708F05CC0209126
:100E40002501309126014091270150912801809180
:100E5000210190912201A0912301B0912401281B2E
:100E6000390B4A0B5B0B60E472E48FE090E00E9468
:100E7000311130932A01209329018091250190910D
:100E80002601A0912701B091280180932101909320
:100E90002201A0932301B093240180912C018F3F64
:100EA00081F080912D010E949001EC0180912C0134
:100EB0000E94900121E0C817D90709F420E020938F
:100EC0002B0180912B018823C9F080911D01909105
:100ED0001E01A0911F01B09120010196A11DB11D1D
:100EE00080931D0190931E01A0931F01B0932001D8
:100EF000DF91CF91089510920201BFCF80911D0123
:100F000090911E01A0911F01B09120010197A109AC
:100F1000B109E6CFCF93DF930E9475026093380149
:100F20007093390180933A0190933B0180910101C4
:100F3000811172C0409138015091390160913A019C
:100F400070913B018091340190913501A09136015F
:100F5000B091370184179507A607B70708F05CC062
:100F6000209138013091390140913A0150913B0173
:100F70008091340190913501A0913601B0913701F3
:100F8000281B390B4A0B5B0B60E472E48FE090E0A6
:100F90000E94311130933D0120933C018091380132
:100FA00090913901A0913A01B0913B0180933401B5
:100FB00090933501A0933601B093370180913F01A2
:100FC0008F3F81F0809140010E949001EC0180915F
:100FD0003F010E94900121E0C817D90709F420E0E1
:100FE00020933E0180913E018823C9F08091300119
:100FF00090913101A0913201B09133010196A11D70
:10100000B11D8093300190933101A0933201B093D0
:101010003301DF91CF91089510920101BFCF8091EC
:10102000300190913101A0913201B09133010197CB
:10103000A109B109E6CFCF93DF930E9475026093B7
:101040004B0170934C0180934D0190934E01809120
:101050000001811172C040914B0150914C0160918F
:101060004D0170914E018091470190914801A091EE
:101070004901B0914A0184179507A607B70708F000
:101080005CC020914B0130914C0140914D01509139
:101090004E018091470190914801A0914901B09182
:1010A0004A01281B390B4A0B5B0B60E472E48FE0AA
:1010B00090E00E9431113093500120934F018091B4
:1010C0004B0190914C01A0914D01B0914E01809344
:1010D000470190934801A0934901B0934A01809140
:1010E00052018F3F81F0809153010E949001EC01E9
:1010F000809152010E94900121E0C817D90709F49C
:1011000020E020935101809151018823C9F0809102
:10111000430190914401A0914501B091460101968F
:10112000A11DB11D8093430190934401A0934501FB
:10113000B0934601DF91CF91089510920001BFCF87
:101140008091430190914401A0914501B0914601E5
:101150000197A109B109E6CFCF92DF92EF92FF92FA
:101160000F931F93CF93DF93FC01228526502230EB
:1011700088F58C010E948405EC01F8018085918539
:1011800096958795BC0190E080E00E9481129B01BA
:10119000AC010E9477139B01AC010E9463119B017B
:1011A000AC010E9463110E94F2136B017C01BE012D
:1011B000DD0F880B990B0E948312A70196010E94F4
:1011C000D911DF91CF911F910F91FF90EF90DF9098
:1011D000CF90089560E070E0CB01F3CFCF92DF9223
:1011E000EF92FF920F931F93CF93DF93DC011A9638
:1011F000EC91E150EB3008F0FDC0EC01F0E0ED5F68
:10120000F64F0C9496140E090E090E090E090E09DC
:101210009B099B0967092F0967092F090E9484050B
:10122000181619065CF4CE01DF91CF911F910F9132
:10123000FF90EF90DF90CF900C948405CE010E9438
:10124000840566277727681B790BCB01DF91CF9147
:101250001F910F91FF90EF90DF90CF9008950E9423
:101260008405BC01990F880B990B0E94831223EF10
:1012700034E045EB5FE30E94D91120E030E0A901A2
:101280000E947213181694F4CE010E948405BC01CA
:10129000990F880B990B0E94831223EF34E045EBE2
:1012A0005FE30E94D9110E944B12CFCFCE010E9462
:1012B0008405BC01990F880B990B0E94831223EFC0
:1012C00034E045EB5FE30E94D9119058ECCF8A815E
:1012D0009B810E94440506E010E0B8010E94821440
:1012E000072E000C880B990B0E94831223EF34E029
:1012F00045EB5FE30E94D91120E030E0A9010E9494
:1013000072132A813B8118165CF4C9010E944405BE
:10131000B8010E948214072E000C880B990BBBCFDA
:10132000C9010E944405B8010E948214072E000CD6
:10133000880B990BC2CF0E94AC086B017C016885B9
:1013400079857695679590E080E00E9481129B01F7
:10135000AC010E9477139B01AC010E9463110E94B3
:10136000F2139B01AC01C701B6010E94771320E084
:1013700030E0A9010E9472131816F4F4CE010E9405
:10138000AC086B017C01688579857695679590E05E
:1013900080E00E9481129B01AC010E9477139B01A7
:1013A000AC010E9463110E94F2139B01AC01C701C2
:1013B000B6010E94771377CFCE010E94AC086B0173
:1013C0007C01688579857695679590E080E00E943C
:1013D00081129B01AC010E9477139B01AC010E941A
:1013E00063110E94F2139B01AC01C701B6010E9478
:1013F00077136BCF70E060E028CF2F923F924F922F
:101400005F926F927F928F929F92AF92BF92CF9294
:10141000DF92EF92FF920F931F93CF93DF9300D051
:1014200000D000D0CDB7DEB78C01F090820288E703
:1014300092E00E94EE082BE02F15B0F0EF2DF0E0C7
:10144000EC5DF54F0C9496140F0B0F0B300A5F0AEE
:10145000640A690A6E0A710A740A770A7A0A7D0AAE
:101460004AED5BE05E834D839801281B390B275FB3
:101470003F4F2331310508F043C0B80188E792E0BF
:10148000ED81FE81099588E792E026960FB6F894E3
:10149000DEBF0FBECDBFDF91CF911F910F91FF90A7
:1014A000EF90DF90CF90BF90AF909F908F907F9004
:1014B0006F905F904F903F902F900C94EE08AFEE9E
:1014C000BBE0BE83AD83D0CFE4E0FCE0FE83ED83E0
:1014D000CBCF29E13CE03E832D83C6CF4AEC5CE0D4
:1014E000C1CFA0E8BCE0EDCFECE2FCE0EFCF21E41F
:1014F0003CE0F1CF46E55CE0B5CFABE6BCE0E1CF48
:101500009C01990F440B550B29833A834B835C83D1
:101510009801012E000C440B550B89819A81AB81F7
:10152000BC81281B390B4A0B5B0BA4E1B0E00E9485
:1015300026112B013C015C014B0189E1282E312C45
:10154000C501B40124EF31E040E050E00E940711F2
:1015500069817A818B819C81620F731F841F951F23
:1015600088E792E0ED81FE8109950E94CD026B0132
:101570007C01F4E1CF0ED11CE11CF11C0E94CD02D4
:101580006C157D058E059F05F0F580917802909190
:1015900079020E94D9028823B1F080917A02909159
:1015A0007B020E94D902882371F080917C02909185
:1015B0007D020E94D902882331F080917E029091B1
:1015C0007F020E94D9020E94CD02A7019601261B2C
:1015D000370B480B590BDA01C9010597A105B10575
:1015E00038F065E070E080E090E00E949A02C6CF9B
:1015F0000E94CD02A7019601261B370B480B590B01
:10160000CA01B901F2CF31E0231A3108840C951CCC
:10161000A61CB71C2114310409F092CF2ECF2696B8
:101620000FB6F894DEBF0FBECDBFDF91CF911F91F3
:101630000F91FF90EF90DF90CF90BF90AF909F9071
:101640008F907F906F905F904F903F902F90089574
:101650004F925F926F927F928F929F92AF92BF92C2
:10166000CF92DF92EF92FF920F931F93CF93DF936E
:10167000CDB7DEB72A970FB6F894DEBF0FBECDBF49
:101680009A87898749015A01ED82FE820F83188764
:10169000072E000C880B990B0E9483126B017C01B2
:1016A000C501B4010E94E4139B01AC01C701B6015E
:1016B0000E9477132B013C01C501B4010E94D41193
:1016C0009B01AC01C701B6010E94771369837A833D
:1016D0008B839C839B01AC01C301B2010E94631107
:1016E0004B015C0120E030E046E953E46D817E81EE
:1016F0008F8198850E9477136B017C01AC019B015F
:10170000C501B4010E9462110E944B12E985FA855D
:10171000808191810E94B80529813A814B815C8149
:10172000C301B2010E9462112B013C01A701960185
:101730000E9462110E944B12E985FA858281938191
:101740000E94B805A7019601C501B4010E9463116A
:1017500090580E944B12E985FA85848195810E94F8
:10176000B805A3019201C701B6010E946311905808
:101770000E944B12E985FA85868197810E94B805FF
:1017800089859A852A960FB6F894DEBF0FBECDBF25
:10179000DF91CF911F910F91FF90EF90DF90CF904D
:1017A000BF90AF909F908F907F906F905F904F9081
:1017B0000C94EE08EF92FF920F931F9322E0FC012E
:1017C0002287E12CF12C87012BED3FE049EC5FE310
:1017D0000E94280B1F910F91FF90EF900895EF92B8
:1017E000FF920F931F9323E0FC012287E12CF12C41
:1017F000870124EE3BEC46E950E40E94280B1F9140
:101800000F91FF90EF900895EF92FF920F931F9327
:1018100024E0FC012287E12CF12C87012BED3FE035
:1018200049E450E40E94280B1F910F91FF90EF9024
:101830000895EF92FF920F931F9325E0FC012287FA
:10184000E12CF12C8701A80197010E94280B1F9120
:101850000F91FF90EF900895EF92FF920F931F93D7
:1018600028E0FC012287E12CF12C870124EE3BECDF
:1018700046E150E40E94280B1F910F91FF90EF90DA
:101880000895EF92FF920F931F9329E0FC012287A6
:10189000E12CF12C870122ED33E54BE750E40E9467
:1018A000280B1F910F91FF90EF900895EF92FF92F8
:1018B0000F931F932AE0FC012287E12CF12C870172
:1018C00020EE3DEE4FEA50E40E94280B1F910F914D
:1018D000FF90EF900895EF92FF920F931F932BE0EC
:1018E000FC012287E12CF12C87012BED3FE049E43C
:1018F0005FE30E94280B1F910F91FF90EF900895D6
:101900008F929F92AF92BF92CF92DF92EF92FF920F
:101910000F931F93CF93DF936C01EB0187E0F601E8
:101920008287608571857695679590E080E00E945A
:1019300081129B01AC010E9477139B01AC010E94B4
:1019400063110E94F2134B015C01662777276C1B21
:101950007D0B072E000C880B990B0E948312A501AA
:1019600094010E94D9117B018C0120E030E0A90193
:1019700070E060E0C6010E94280BDF91CF911F91BB
:101980000F91FF90EF90DF90CF90BF90AF909F901E
:101990008F900895CF92DF92EF92FF920F931F9353
:1019A000CF93DF93EC018B0186E08A876885798588
:1019B0007695679590E080E00E9481129B01AC01D2
:1019C0000E9477139B01AC010E9463110E94F213E5
:1019D0006B017C01B801110F880B990B0E948312D7
:1019E000A70196010E94D9117B018C0120E030E013
:1019F000A90170E060E0CE010E94280BDF91CF9139
:101A00001F910F91FF90EF90DF90CF9008951F925C
:101A10000F920FB60F9211242F933F938F939F93A2
:101A2000AF93BF9380916B0190916C01A0916D0178
:101A3000B0916E0130916A0123E0230F2D3758F5E4
:101A40000196A11DB11D20936A0180936B019093B3
:101A50006C01A0936D01B0936E0180916F01909124
:101A60007001A0917101B09172010196A11DB11D8B
:101A700080936F0190937001A0937101B0937201F4
:101A8000BF91AF919F918F913F912F910F900FBE7A
:101A90000F901F90189526E8230F0296A11DB11DE7
:101AA000D2CF1F920F920FB60F9211242F933F9314
:101AB0004F935F936F937F938F939F93AF93BF9356
:101AC000EF93FF93E0910601F09107010995FF91D3
:101AD000EF91BF91AF919F918F917F916F915F91A6
:101AE0004F913F912F910F900FBE0F901F9018951F
:101AF0001F920F920FB60F9211242F933F934F9383
:101B00005F936F937F938F939F93AF93BF93EF9365
:101B1000FF93E0910401F09105010995FF91EF9188
:101B2000BF91AF919F918F917F916F915F914F91F5
:101B30003F912F910F900FBE0F901F9018951F92FD
:101B40000F920FB60F9211242F933F934F935F93F1
:101B50006F937F938F939F93AF93BF93EF93FF9375
:101B600083E791E00E94D800FF91EF91BF91AF9180
:101B70009F918F917F916F915F914F913F912F91A5
:101B80000F900FBE0F901F9018951F920F920FB6D7
:101B90000F9211242F938F939F93EF93FF93E091D4
:101BA0008301F09184018081E0918901F0918A01A3
:101BB00082FD1BC0908180918C018F5F8F7320917B
:101BC0008D01821741F0E0918C01F0E0ED58FE4F5D
:101BD000958F80938C01FF91EF919F918F912F9121
:101BE0000F900FBE0F901F9018958081F4CF1F9219
:101BF0000F920FB60F9211242F933F934F935F9341
:101C00006F937F938F939F93AF93BF93EF93FF93C4
:101C100080E492E00E942A06FF91EF91BF91AF917C
:101C20009F918F917F916F915F914F913F912F91F4
:101C30000F900FBE0F901F9018951F920F920FB626
:101C40000F9211242F933F934F935F936F937F9342
:101C50008F939F93AF93BF93EF93FF9388E292E0AC
:101C60000E942A06FF91EF91BF91AF919F918F91B2
:101C70007F916F915F914F913F912F910F900FBE88
:101C80000F901F9018951F920F920FB60F9211246C
:101C90002F933F934F935F936F937F938F939F9374
:101CA000AF93BF93EF93FF9380E192E00E942A06E7
:101CB000FF91EF91BF91AF919F918F917F916F9124
:101CC0005F914F913F912F910F900FBE0F901F90FA
:101CD00018958F929F92AF92BF92CF92DF92EF9220
:101CE000FF920F931F93CF93DF93EC01162F842E57
:101CF000922EFC01E05CFF4F10821182128213824F
:101D0000349680E090ECAFE7B4E480839183A283C3
:101D1000B3835E0188E4A80EB11CD5011D921D920B
:101D20001D921C9213976E01BCE4CB0ED11C80E077
:101D300090E0AFE7B3E4F60180839183A283B3839D
:101D400088EE93E0A0E0B0E089AB9AABABABBCAB64
:101D500082E598EBAEE9BEE3888F998FAA8FBB8F9F
:101D60004AE057ED63EA7CE34C8F5D8F6E8F7F8F87
:101D700018A219A21AA21BA288839983AA83BB83E3
:101D800040E050E068E472E44C835D836E837F83BF
:101D9000188619861A861B8643EC55EF6CE771E4AA
:101DA0004C875D876E877F87888B998BAA8BBB8BCF
:101DB0001C8A1D8A1E8A1F8A0E94CD026DA77EA7DB
:101DC0008FA798AB1DAAFE01E65AFF4FFFA3EEA313
:101DD000CE01885A9F4F9DA38CA3049699A788A7EC
:101DE0001FAE1EAE1DAE1CAE1BAE1AAE1CA6608191
:101DF0007181072E000C880B990B0E948312D5016C
:101E00002D913D914D915C910E946211F6012081CE
:101E10003181428153810E94D9116EAB7FAB88AF73
:101E200099AF6E01F1E5CF0ED11CD601ED92FC9277
:101E3000FE01ED5AFF4F10835E01B4E5AB0EB11CFD
:101E4000F5018082D70152969C92529751960C933D
:101E500061E0812F0E94E70161E0F50180810E942D
:101E6000E701D601ED91FC9160E082890E94E701D3
:101E7000D601ED91FC9181898F3F19F060E00E94BD
:101E8000E701CE59DF4F1882DF91CF911F910F915B
:101E9000FF90EF90DF90CF90BF90AF909F908F908A
:101EA0000895CF92DF92EF92FF920F93CF93DF933B
:101EB000109276011092750188EE93E0A0E0B0E0F8
:101EC0008093770190937801A0937901B0937A0180
:101ED00088E591E0909374018093730185EC90E024
:101EE0009093800180937F0184EC90E09093820135
:101EF0008093810180EC90E0909384018093830132
:101F000081EC90E0909386018093850182EC90E0D3
:101F1000909388018093870186EC90E090938A01EA
:101F20008093890110928C0110928D0110928E0184
:101F300010928F01E8E5F2E011821082128234964D
:101F400082E0E837F807C1F7EAEDF0E08591949177
:101F500090931102809310028BE690E0909313020D
:101F60008093120281E08093140210921502E6E140
:101F7000F2E01192119282E0E832F807D1F7ECED2D
:101F8000F0E08591949190932902809328028CE649
:101F900090E090932B0280932A0282E080932C029F
:101FA00010922D02EEE2F2E080E492E011921192A2
:101FB0008E179F07D9F7EEEDF0E0859194919093FD
:101FC0004102809340028DE690E09093430280931B
:101FD000420284E08093440210924502E6E4F2E07B
:101FE0001192119282E0E835F807D1F781E4E82EEA
:101FF00081E0F82E05E024E042E063E089EB93E025
:102000000E94690E90E5C92ED12CD0921D04C09279
:102010001C04CCEBD0E0D0931F04C0931E042EE22E
:10202000E22E21E0F22E0FE02EE04CE06BE082E5A4
:1020300093E00E94690ED092B603C092B503D0938C
:10204000B803C093B7033BE1E32E31E0F32E01E187
:1020500020E148E069E08BEE92E00E94690ED092A8
:102060004F03C0924E03D0935103C093500348E0F6
:10207000E42E41E0F42E03E122E147E06AE084E847
:1020800092E00E94690ED092E802C092E702D093DB
:10209000EA02C093E90289EB93E09093790280937E
:1020A000780282E593E090937B0280937A028BEE34
:1020B00092E090937D0280937C0284E892E090937A
:1020C0007F0280937E028CE291E090938102809364
:1020D000800210928302DF91CF910F91FF90EF90D9
:1020E000DF90CF9008958F929F92AF92BF92CF9240
:1020F000DF92EF92FF92CF93DF9380E090E0A0EF2A
:10210000B1E48093660190936701A0936801B09356
:102110006901C4E0D0E0C0906601D0906701E09012
:102120006801F0906901C701B6010E944B124B0192
:1021300088E792E00E94DA0BC4010E94FD09A70122
:10214000960160E070E086E993E40E94D91124EEE4
:102150003DE94FE350E40E94621120E030E047E2A5
:1021600053E40E9477130E9452120E949A0290E058
:1021700080E00E94FD0964EF71E080E090E00E9441
:102180009A02C0906601D0906701E0906801F090DB
:102190006901C701B6010E944B124B0188E792E02A
:1021A0000E94800CC4010E94FD09A701960163ED05
:1021B0007FEB8DE593E40E94D91124EE3DE94FE3D6
:1021C00050E40E94621120E030E047E253E40E94B4
:1021D00077130E9452120E949A0290E080E00E94BF
:1021E000FD0964EF71E080E090E00E949A0221977F
:1021F00009F091CF90E080E0DF91CF91FF90EF90D8
:10220000DF90CF90BF90AF909F908F900895052E54
:1022100097FB1EF400940E941E1157FD07D00E94E8
:10222000311107FC03D04EF40C941E1150954095CB
:10223000309521953F4F4F4F5F4F08959095809572
:10224000709561957F4F8F4F9F4F08950E94531156
:10225000A59F900DB49F900DA49F800D911D1124FA
:102260000895A1E21A2EAA1BBB1BFD010DC0AA1FD7
:10227000BB1FEE1FFF1FA217B307E407F50720F0EF
:10228000A21BB30BE40BF50B661F771F881F991F6A
:102290001A9469F760957095809590959B01AC01B3
:1022A000BD01CF010895A29FB001B39FC001A39FBC
:1022B000700D811D1124911DB29F700D811D11247F
:1022C000911D08955058BB27AA270E947A110C949B
:1022D00024130E94EB1238F00E94F21220F039F41D
:1022E0009F3F19F426F40C94E8120EF4E095E7FBF6
:1022F0000C94E212E92F0E94491358F3BA176207AF
:1023000073078407950720F079F4A6F50C946B13F6
:102310000EF4E0950B2EBA2FA02D0B01B901900100
:102320000C01CA01A0011124FF27591B99F0593F44
:1023300050F4503E68F11A16F040A22F232F342F8C
:102340004427585FF3CF469537952795A795F040DA
:102350005395C9F77EF41F16BA0B620B730B840BEF
:10236000BAF09150A1F0FF0FBB1F661F771F881FA7
:10237000C2F70EC0BA0F621F731F841F48F48795FF
:1023800077956795B795F7959E3F08F0B0CF9395F1
:10239000880F08F09927EE0F9795879508950E946A
:1023A000BE1208F481E008950E94FB12E3950C949C
:1023B00035130E94ED110C9424130E94F21258F070
:1023C0000E94EB1240F029F45F3F29F00C94E212D6
:1023D00051110C946C130C94E8120E94491368F389
:1023E0009923B1F3552391F3951B550BBB27AA27CE
:1023F00062177307840738F09F5F5F4F220F331F08
:10240000441FAA1FA9F335D00E2E3AF0E0E832D0CF
:1024100091505040E695001CCAF72BD0FE2F29D0D2
:10242000660F771F881FBB1F261737074807AB07A4
:10243000B0E809F0BB0B802DBF01FF2793585F4F19
:102440003AF09E3F510578F00C94E2120C946C1314
:102450005F3FE4F3983ED4F3869577956795B795FB
:10246000F7959F5FC9F7880F911D9695879597F906
:102470000895E1E0660F771F881FBB1F621773077F
:102480008407BA0720F0621B730B840BBA0BEE1F94
:1024900088F7E09508950E9452126894B1110C9447
:1024A0006C1308950E94511388F09F5798F0B92F2C
:1024B0009927B751B0F0E1F0660F771F881F991F79
:1024C0001AF0BA95C9F714C0B13091F00E946B139D
:1024D000B1E008950C946B13672F782F8827B85FAD
:1024E00039F0B93FCCF3869577956795B395D9F7D1
:1024F0003EF490958095709561957F4F8F4F9F4FDB
:102500000895E89409C097FB3EF4909580957095E6
:1025100061957F4F8F4F9F4F9923A9F0F92F96E92F
:10252000BB279395F695879577956795B795F111A4
:10253000F8CFFAF4BB0F11F460FF1BC06F5F7F4F41
:102540008F4F9F4F16C0882311F096E911C0772353
:1025500021F09EE8872F762F05C0662371F096E85C
:10256000862F70E060E02AF09A95660F771F881F2B
:10257000DAF7880F9695879597F90895990F0008CF
:10258000550FAA0BE0E8FEEF16161706E807F90745
:10259000C0F012161306E407F50798F0621B730BE0
:1025A000840B950B39F40A2661F0232B242B252B61
:1025B00021F408950A2609F4A140A6958FEF811D04
:1025C000811D089597F99F6780E870E060E00895A5
:1025D0009FEF80EC089500240A941616170618063B
:1025E0000906089500240A94121613061406050617
:1025F00008950C94E8120E945113D8F3E894E0E097
:10260000BB279F57F0F02AED3FE049EC06C0EE0FE4
:10261000BB0F661F771F881F28F0B23A6207730747
:10262000840728F0B25A620B730B840BE3959A95DA
:1026300072F7803830F49A95BB0F661F771F881F9A
:10264000D2F790480C943414092E0394000C11F422
:10265000882352F0BB0F40F4BF2B11F460FF04C07D
:102660006F5F7F4F8F4F9F4F0895EF93E0FF07C03D
:10267000A2EA2AED3FE049EC5FEB0E947A110E944A
:1026800024130F90039401FC9058E8E6F0E00C94BA
:10269000471457FD9058440F551F59F05F3F71F094
:1026A0004795880F97FB991F61F09F3F79F08795B9
:1026B0000895121613061406551FF2CF4695F1DF42
:1026C00008C0161617061806991FF1CF86957105D2
:1026D000610508940895E894BB2766277727CB0106
:1026E00097F908950E94BE1208F48FEF08950E9492
:1026F0008A130C9424130E94EB1238F00E94F212F9
:1027000020F0952311F00C94E2120C94E81211249D
:102710000C946C130E94491370F3959FC1F3950FAD
:1027200050E0551F629FF001729FBB27F00DB11D55
:10273000639FAA27F00DB11DAA1F649F6627B00DE5
:10274000A11D661F829F2227B00DA11D621F739FCE
:10275000B00DA11D621F839FA00D611D221F749FDC
:102760003327A00D611D231F849F600D211D822F23
:10277000762F6A2F11249F5750409AF0F1F088234A
:102780004AF0EE0FFF1FBB1F661F771F881F915077
:102790005040A9F79E3F510580F00C94E2120C9432
:1027A0006C135F3FE4F3983ED4F386957795679575
:1027B000B795F795E7959F5FC1F7FE2B880F911DA1
:1027C0009695879597F908959F930E94FB120F9015
:1027D00007FCEE5F0C94351319F416F40C94E81210
:1027E0000C9432140E945113B8F39923C9F3B6F331
:1027F0009F57550B87FF0E9440140024A0E640EA33
:10280000900180585695979528F4805C660F771F45
:10281000881F20F026173707480730F4621B730B18
:10282000840B202931294A2BA6951794079420253B
:1028300031254A2758F7660F771F881F20F0261783
:102840003707480730F4620B730B840B200D311DE2
:10285000411DA09581F7B901842F9158880F969555
:10286000879508959F3F31F0915020F48795779593
:102870006795B795880F911D9695879597F9089557
:1028800091505040660F771F881FD2F708959F938D
:102890008F937F936F93FF93EF939B01AC010E9403
:1028A0007713EF91FF910E945B142F913F914F910D
:1028B0005F910C947713DF93CF931F930F93FF9245
:1028C000EF92DF927B018C01689406C0DA2EEF0153
:1028D0000E948A13FE01E894A591259135914591B6
:1028E0005591A6F3EF010E947A11FE019701A8010C
:1028F000DA9469F7DF90EF90FF900F911F91CF91DD
:10290000DF91089597FB072E16F4009407D077FD0A
:1029100009D00E949C1407FC05D03EF49095819547
:102920009F4F0895709561957F4F0895EE0FFF1F9B
:102930000590F491E02D0994AA1BBB1B51E107C03F
:10294000AA1FBB1FA617B70710F0A61BB70B881F3F
:10295000991F5A95A9F780959095BC01CD010895CE
:04296000F894FFCF19
:1029640001010101F304F304680600000000000003
:102974000000000000000000000000F90600000054
:1029840000000000000000000000000000008A07B2
:102994000000000000000000000000000000000033
:1029A400001B080000000000000000000000000000
:1029B4000000000000000000FA00F4049B0047013E
:0629C400CC00AA00BE00D9
:00000001FF
